:10000000FC1F0020F900000003E2FF1F03E2FF1FB6
:1000100003E2FF1F03E2FF1F03E2FF1F01E2FF1FD6
:1000200001E2FF1F01E2FF1F01E2FF1F03E2FF1FCA
:1000300003E2FF1F01E2FF1F03E2FF1F03E2FF1FB6
:1000400003E2FF1F03E2FF1F03E2FF1F03E2FF1FA4
:1000500003E2FF1F03E2FF1F03E2FF1F03E2FF1F94
:1000600003E2FF1F03E2FF1F03E2FF1F03E2FF1F84
:1000700003E2FF1F03E2FF1F03E2FF1F03E2FF1F74
:10008000B9E6FF1F03E2FF1F03E2FF1F03E2FF1FAA
:1000900003E2FF1F03E2FF1F03E2FF1F03E2FF1F54
:1000A00003E2FF1F03E2FF1F03E2FF1F03E2FF1F44
:1000B00003E2FF1F03E2FF1F03E2FF1F03E2FF1F34
:1000C00003E2FF1F03E2FF1F03E2FF1F45E2FF1FE2
:1000D00003E2FF1F03E2FF1F03E2FF1F03E2FF1F14
:1000E00003E2FF1F03E2FF1F03E2FF1F03E2FF1F04
:1000F00003E2FF1F03E2FF1F3D4B4CF220521A8028
:100100004DF628121A8000BF00BFD32223F80E2C10
:1001100000221A81072223F80A2C4FF4A64223F862
:10012000082CA3F51F43D63B324A1A60324A5A6064
:1001300003F5533303F2CA331A78110703D51A783B
:1001400042F008021A702D4B0A221A70A3F6FF73B0
:1001500024221A70A02203F8012C294B1A78920746
:10016000FBD51A78D006FCD41A7802F00C02082AC3
:10017000FAD1244B03221A7040225A700023224ADB
:1001800022499818884204D2214959589950043379
:10019000F5E7204A204B9A424FF0000302D242F882
:1001A000043BF7E71D491E4A595899500433B3F5EB
:1001B000807FF7D11B4B1A60114B1A789106FBD543
:1001C0001A785206FCD5184B184A1A60184B202290
:1001D0001A700B4B1B7803F00C030C2BF9D1154B49
:1001E00002221A60443B144A1A6062B600F028B832
:1001F0000E200540823F04000100002B0050064005
:10020000064006400440064000E2FF1F40ECFF1F8E
:100210001004000000F0FF1F34F9FF1F0000000071
:1002200000F0FF1F08ED00E04480044000000311CF
:100230000040064048800440C0100500FFFFFFFF5B
:1002400001B40248844601BC604700BFBDE7FF1F00
:10025000FFFFFFFFFFFFFFFFFFFFFFFFFFFFFFFFAE
:10026000FFFFFFFFFFFFFFFFFFFFFFFFFFFFFFFF9E
:10027000FFFFFFFFFFFFFFFFFFFFFFFFFFFFFFFF8E
:10028000FFFFFFFFFFFFFFFFFFFFFFFFFFFFFFFF7E
:10029000FFFFFFFFFFFFFFFFFFFFFFFFFFFFFFFF6E
:1002A000FFFFFFFFFFFFFFFFFFFFFFFFFFFFFFFF5E
:1002B000FFFFFFFFFFFFFFFFFFFFFFFFFFFFFFFF4E
:1002C000FFFFFFFFFFFFFFFFFFFFFFFFFFFFFFFF3E
:1002D000FFFFFFFFFFFFFFFFFFFFFFFFFFFFFFFF2E
:1002E000FFFFFFFFFFFFFFFFFFFFFFFFFFFFFFFF1E
:1002F000FFFFFFFFFFFFFFFFFFFFFFFFFFFFFFFF0E
:10030000FFFFFFFFFFFFFFFFFFFFFFFFFFFFFFFFFD
:10031000FFFFFFFFFFFFFFFFFFFFFFFFFFFFFFFFED
:10032000FFFFFFFFFFFFFFFFFFFFFFFFFFFFFFFFDD
:10033000FFFFFFFFFFFFFFFFFFFFFFFFFFFFFFFFCD
:10034000FFFFFFFFFFFFFFFFFFFFFFFFFFFFFFFFBD
:10035000FFFFFFFFFFFFFFFFFFFFFFFFFFFFFFFFAD
:10036000FFFFFFFFFFFFFFFFFFFFFFFFFFFFFFFF9D
:10037000FFFFFFFFFFFFFFFFFFFFFFFFFFFFFFFF8D
:10038000FFFFFFFFFFFFFFFFFFFFFFFFFFFFFFFF7D
:10039000FFFFFFFFFFFFFFFFFFFFFFFFFFFFFFFF6D
:1003A000FFFFFFFFFFFFFFFFFFFFFFFFFFFFFFFF5D
:1003B000FFFFFFFFFFFFFFFFFFFFFFFFFFFFFFFF4D
:1003C000FFFFFFFFFFFFFFFFFFFFFFFFFFFFFFFF3D
:1003D000FFFFFFFFFFFFFFFFFFFFFFFFFFFFFFFF2D
:1003E000FFFFFFFFFFFFFFFFFFFFFFFFFFFFFFFF1D
:1003F000FFFFFFFFFFFFFFFFFFFFFFFFFFFFFFFF0D
:10040000FFFFFFFFFFFFFFFFFEFFFFFFFEFFFF40BD
:10041000FEE7FEE7F0B50C4B0C4C1A7842F00205F3
:1004200004EBC50682F00102706009481A70067874
:10043000002E0CBF8827C82786F0010647EA014135
:10044000067044F83510F0BD48F4FF1F00E0FF1FB0
:100450009FF4FF1F2DE9F743944E3378DBB213F07E
:10046000040F18BF042103F0080018BF3170324692
:1004700000F0FF01002800F093818D4B1F78FFB240
:100480003B0940F08A818B4CBF0804EBC7025168DE
:1004900054F83720C2F38302092A00F057810D2A4D
:1004A00003D0012A40F076811CE1834D0A68496837
:1004B0006960824944F8371081492A600120087038
:1004C000804F81493B6092B2B2F5A06F0B8067D03C
:1004D00024D840F221139A4200F08980B2F5917F2E
:1004E0000CD2822A3FD0B2F5817F4BD0802A40F0D7
:1004F000A880764C002323706370A5E040F2A133FE
:100500009A4200F0848040F221439A4200F08680B3
:1005100040F202339A4240F0948043E040F281611D
:100520008A420BD8B2F5D06F4AD240F2A1539A4218
:1005300079D040F221639A427DD082E0B2F5106F0B
:100540000ED007D8B2F5086F7BD1614B5F4C1B789A
:1005500023706EE0A2F5FD42403A012A43D970E0D3
:10056000A9785B4A1BE0AA885A4B0AB10F2210E116
:10057000564C0022227062701B78980764D50123C4
:10058000237061E0AA8851065BD14B4B5B88002B3E
:1005900057D191004F4A0A44117821F0020111709D
:1005A0001C4658E0AA8853064BD1434B5B88002B6E
:1005B00047D19100474A0A44117841F00201EEE721
:1005C0006A88454B53F8084CA3F10C01002C38D035
:1005D0000C3333F8180C9042F4D1120A032A0CBFE2
:1005E00023780B8937E0AB88042B2AD12EE0AB8827
:1005F0003BBBE98849B9688800910A460B4600F080
:10060000AFFA10B9334B0F221A700023C8E7AB883A
:10061000BBB92E4800F040FBD8B912E0AB8883B9D3
:1006200000F06EFB0BE0AB885BB900F093FA274C4F
:10063000207001230FE0AB881BB900F077FB002886
:10064000E3D10F22234BA4E0022304E02823234C10
:1006500001E01E4C0623B5F80680434538BF984696
:10066000B8F1400F34BF4546402520462946FFF7E4
:10067000D1FEB8EB05082C4404D1402D40F08A800F
:10068000454604E0B8F1400F34BF454640252046BA
:100690002946FFF7BFFEB8EB05082C4401D1402DD9
:1006A00078D10F4A3C60A2F8008073E080200740B8
:1006B0009020074000E0FF1F8CF4FF1F80004000E7
:1006C0009FF4FF1F00F4FF1F04F4FF1F96F4FF1FA9
:1006D0009EF4FF1FC020074040EBFF1FE0EBFF1F11
:1006E00094F4FF1F4A48028840F221139A4229D10C
:1006F0008388484A1BB11588C3889D421FD8C38888
:10070000128840880091C2EB0308B8F1400F28BF5F
:100710004FF04008194643463E4D00F021FA70B1B3
:100720002B8898443A4BDB881FFA88F84345A5F894
:10073000008007D838480021FFF76CFE02E0374BF5
:100740000F221A70364B44F8373023E0354F3D689E
:10075000B5B1DFF8F480B8F80090B9F1400F34BFBC
:100760004C46402428462146FFF754FEC4EB0903BB
:100770009BB2A8F800300BB9402C00D12B193B607C
:10078000234B1A88B2F5A06F04D100225A709A78D0
:10079000254B1A70254B01221A70082333705BE633
:1007A000DC071FD521481E4C214D1F4A0223037030
:1007B000204B1970204B1C609C60204CDC605D60FD
:1007C00019619961154B0D241C701D4CFF2323707A
:1007D0003370117002F80C3C1A4B9F221A700123DF
:1007E000037012E0180604D50C490D200870802112
:1007F0003170990705D512490878C0B208700221F6
:100800001170DB0644BF1023137003B0BDE8F08302
:100810008CF4FF1F04F4FF1F96F4FF1FC020074055
:100820008000400000F4FF1F9820074094200740FC
:1008300008F4FF1F48F4FF1F00E0FF1F4CF4FF1FE8
:10084000882007408420074094F4FF1F184B1A6843
:1008500042F480221A6003F52833D83380221A70BC
:100860001978144A0906FBD4134B1449C3F3072023
:100870000870C3F307401B0E08750B76FF2301F8C1
:100880001C3C01F8143C01F88C3C137843F0400305
:1008900013700021012302F8783C02F80C1C02F8C6
:1008A000883C074B08221A60064B10221A707047CA
:1008B000348004400C21074000E0FF1F9C200740CB
:1008C00004E100E008210740F0B52E4A137813F048
:1008D000300F25D072B62C4B2C4C1B7803F0FF0048
:1008E0002BB923782A4B4021197062B618E062B602
:1008F000284B294D19782E78C9B2F6B21D464B1CEB
:10090000DBB2402B277828BF0023B342FFB202D0CE
:100910002249CF541946431E13F0FF00EFD129702E
:100920001F4B1978C9B20D0620D513781C061DD5AA
:100930001C4B1D481E780378F6B2DBB2B3420ED0D2
:100940000133DBB2402B1478184C28BF0023E55C40
:100950000E4CEDB225700D342478072CEED90370BF
:100960001378180602D50E4B7C201870490608D55E
:1009700013785B0605D50E4B00221A70084B3C22FB
:100980001A70F0BD04A0064016A0064007A006405D
:1009900011A0064022F5FF1FA1F4FF1FE2F4FF1F84
:1009A00003A0064024F5FF1F23F5FF1FA2F4FF1F3D
:1009B000A0F4FF1F72B6044B4AF202621A804BF297
:1009C00080421A8062B670470C2005402D492E4A9D
:1009D00038B540F2071313600B602C4B196821F0F7
:1009E000A00119602A49096811F0A00F0BD0294C09
:1009F0006168A1F58051B1F5F83F04D2264D274832
:100A0000296881422ED14FF4A27111601A6842F018
:100A100040021A60224B1A6842F040021A6000F04D
:100A200097F8FFF713FF00F095F8072806D072B685
:100A300000F0F8F862B6FFF7BDFFF4E7164B0022AE
:100A40001A600B24174B184D40221A60FFF7B2FFB3
:100A5000013DFBD1013CF5D1FFF7ACFF72B6134B62
:100A60001C70FEE772B6124B1C60FFF7A3FF002359
:100A70002B60226861684FF0FF339E469546084719
:100A8000002038BD1CC0044018C00440D4F00F4002
:100A9000D0F00F4000100000FC1F0020464362749D
:100AA000C0F00F40CCF00F40A086010008210740A5
:100AB00008ED00E00E4B06221A70C0F3074203F85F
:100AC000012CC0F30722C0B203F8022C03F8030C78
:100AD000CA781A718A78DA704A789A700A785A70E5
:100AE000702203F8072C802203F8072C704700BF00
:100AF00007000240030610B522D500F0400303F0C2
:100B0000FF043BB10F4B0A221A700F4B0E221A70D2
:100B1000002213E010F0300208D00A4B0A221A70AB
:100B2000094B08221A70094B1C7009E010F00100F3
:100B300007D0044B0A201870034B1970034B1A702E
:100B4000012010BD38ECFF1F31F9FF1F30F9FF1FE6
:100B500070470000014B1878704700BF38ECFF1F4A
:100B6000F0B5D418B4F5806F059E01D88C4205D934
:100B7000254B0A221A700822244B20E0244D2A44D7
:100B800000259D4203D0775D57550135F9E78C422A
:100B900038D11D4A1D4B1578022D114605D0052D63
:100BA00003D00A2111700F2209E01A4D2A7812068B
:100BB00002D5194F3A782AB10A220A700E221A7009
:100BC0000020F0BD1CB906220A701C701AE08402D5
:100BD000124804F580540460012611483E7009272C
:100BE0000770C4F30747240AE4B200F8017C00F858
:100BF000024C00F8032C70202870802028700320FD
:100C000008701A700120F0BD38ECFF1F31F9FF1F8A
:100C10002CF5FF1F0000024030F9FF1F28F5FF1FD1
:100C20000700024070B5174B174D18782B78012B31
:100C3000C0B202D0022B0FD070BD0421FFF75AFFC3
:100C4000F0B902232B70114B11491860114BBDE80C
:100C500070401868FFF72EBF0721FFF74BFF78B9E8
:100C60000A4E3468B4F5806F09D20A4B08491868F7
:100C7000214420440434FFF71DFF346070BD287008
:100C800070BD00BF0000024030F9FF1F2CF9FF1FAC
:100C90002CF5FF1F28F5FF1F70B5154D154E2B784D
:100CA000032B044615D3042B07D9062B11D1072398
:100CB0002B704FF47A7333600BE0FFF7B3FF2B78A0
:100CC0000A2B06D00C4B1B780BB9052300E004233C
:100CD0002B700A4B1B782370336863701A0A1B0C45
:100CE000E3702B7823710023A2706371012070BD23
:100CF00038ECFF1F3CECFF1F30F9FF1F31F9FF1FDD
:100D0000084B1A780A2A084A05D1022119700023D3
:100D10001370012070470A2119700F2313700020EF
:100D2000704700BF38ECFF1F31F9FF1F034B022251
:100D30001A70034B00221A700120704738ECFF1F15
:100D400031F9FF1F0001000088EBFF1F12000000B7
:100D500000020000B2EBFF1F1B00000000030000B8
:100D600034ECFF1F00000000010300009AEBFF1F9E
:100D7000000000000203000008ECFF1F000000005C
:100D8000EE030000CEEBFF1F00000000000000009B
:100D900000000000000000001201000200000040FE
:100DA000501DA960000101020001180342006C00FF
:100DB00069006E006B0069006E006C0061006200EB
:100DC000730009021B0001010280320904000000C7
:100DD000FE01020209210D10270004010100120387
:100DE0004D005300460054003100300030007E00BA
:100DF00028000000000104000100000000000000C5
:100E0000000157494E555342000000000000000009
:100E100000000000000000002C034C006900670087
:100E200068007400420075006400640079002000CE
:100E300042006F006F0074006C006F00610064007E
:100E400065007200040309040200000001000000B4
:10100000FC1F0020911100004D1100004D11000047
:101010004D1100004D1100004D1100005D11000048
:101020005D1100005D1100005D1100004D11000018
:101030004D1100005D1100004D1100004F11000026
:10104000793900004D1100004D1100004D110000D4
:101050004D1100004D1100004D1100004D11000018
:101060004D1100004D1100004D1100004D11000008
:101070004D1100004D1100004D1100004D110000F8
:101080004D1100004D1100004D1100004D110000E8
:101090004D1100004D1100004D1100004D110000D8
:1010A0004D1100004D1100004D1100004D110000C8
:1010B0004D1100004D1100004D1100004D110000B8
:1010C0004D1100004D1100004D110000351D0000B4
:1010D0004D1100004D1100004D1100004D11000098
:1010E000FD1200004D130000D51300009114000004
:1010F000151500004D11000010B5054C237833B9CB
:10110000044B13B10448AFF300800123237010BDDA
:10111000C8F7FF1F000000005C48000008B5064B40
:101120001BB106480649AFF300800648036813B1B7
:10113000054B03B1984708BD000000005C48000063
:10114000CCF7FF1FC8F7FF1F00000000FEE7024BAF
:101150001A6801321A6070476CF8FF1F08B50B4C13
:101160002368580301D500F0E5FD2368590501D532
:10117000FFF7ECFF23681A0501D5FFF7E7FF2368A7
:10118000DB04ECD5FFF7E2FFE9E700BF3480044061
:1011900010B50023134A14499818884204D2134901
:1011A000595899500433F5E7114B124A934203D230
:1011B000002243F8042BF8E70F4B4BF67F321A60FE
:1011C000072243F8042C62B600F0E4FB0B4C0C4BF6
:1011D0009C4203D054F8043B9847F8E701F0DCFA4E
:1011E000FEE700BF80F1FF1FC8F7FF1F5C4800004B
:1011F000C8F7FF1F1411002014E000E04C48000065
:1012000058480000024A1368184410601846704796
:1012100080F1FF1FEFF313839BB9EFF3108098B9B0
:10122000EFF3058323B10F2B04D9084A985C01E042
:101230004FF48070EFF311833BB1834238BF1846FF
:1012400070474FF0FF30704718467047F0E300E0FA
:10125000084B4FF480721A604FF400721A604FF41A
:1012600080621A604FF400621A604FF480521A6074
:10127000704700BF04E100E0212830B521D8042ADE
:101280001FD8DFE802F00709050B03000B2306E077
:101290000A2304E0082302E00C2300E00923094AA2
:1012A00002EBC002526872B61468074D24F4702431
:1012B000146044F0807444EA034345F8201013603E
:1012C00062B630BDF4450000E4F7FF1F094B03EBA5
:1012D000C0035A6872B6136823F0877323F480330F
:1012E00043F080731360044B002243F8202062B661
:1012F000704700BFF4450000E4F7FF1F114B10B525
:101300001C681C60E00404D50F4BDA680AB1DB6886
:101310009847A10404D50C4B1A690AB11B69984778
:10132000A20604D5084B1A6E0AB11B6E9847E30655
:1013300006D5054BD3F8842012B1D3F884309847F2
:1013400010BD00BFA0900440E4F7FF1F1F4B10B575
:101350001C681C60E00304D51D4B1A680AB11B68A9
:101360009847A10304D51A4B5A680AB15B6898479D
:10137000E20704D5164B1A6C0AB11B6C9847A307F9
:1013800004D5134B5A6C0AB15B6C9847200704D5FF
:101390000F4B9A6C0AB19B6C9847610704D50C4BB4
:1013A000DA6C0AB1DB6C9847220304D5084B5A6EFD
:1013B0000AB15B6E9847630306D5054BD3F88020CE
:1013C00012B1D3F88030984710BD00BFA0A00440F0
:1013D000E4F7FF1F2C4B10B51C681C60200704D5D8
:1013E0002A4B5A6A0AB15B6A9847E10604D5274B33
:1013F0009A6A0AB19B6A9847620604D5234BDA6A57
:101400000AB1DB6A9847230604D5204B1A6B0AB150
:101410001B6B9847A00604D51C4B5A6B0AB15B6B3B
:101420009847E10704D5194BDA6B0AB1DB6B984793
:10143000A20704D5154B9A6D0AB19B6D98476307B7
:1014400004D5124BDA6D0AB1DB6D9847A00504D5BF
:101450000E4BDA6E0AB1DB6E9847E10504D50B4BF3
:101460001A6F0AB11B6F9847620504D5074B5A6F74
:101470000AB15B6F9847230504D5044B9A6F0AB1F4
:101480009B6F984710BD00BFA0B00440E4F7FF1F5A
:101490001E4B10B51C681C60E00704D51C4B9A68F5
:1014A0000AB19B689847210604D5194B5A690AB1BD
:1014B0005B699847E20604D5154B9A690AB19B69A6
:1014C0009847630704D5124BDA690AB1DB6998477C
:1014D000200704D50E4B1A6A0AB11B6A9847A10768
:1014E00004D50B4B9A6B0AB19B6B9847A20604D5A7
:1014F000074B1A6D0AB11B6D9847630604D5044B60
:101500005A6D0AB15B6D984710BD00BFA0C0044082
:10151000E4F7FF1F094B10B51C681C60A20704D537
:10152000074B9A6E0AB19B6E9847E30704D5044BAC
:10153000DA6F0AB1DB6F984710BD00BFA0D004403E
:10154000E4F7FF1F014B1868704700BF00D003404D
:10155000044B054900221A600A60044A10601022F8
:101560001A60704714D0034004D0034000D00340F9
:1015700000280EDB02024FF48073B2F5004F06D351
:10158000013B012BC0EB020101D00A46F5E7120A2C
:1015900010E0404202024FF48073B2F5014F06D3CF
:1015A000013B012BC0EB020101D00A46F5E7120A0C
:1015B000C2F58072013B024942EA03220A60704789
:1015C0000CD0034018B1102828BF102000E00120E3
:1015D000014B1870704700BF84F1FF1F10B5002346
:1015E0004FF437721A41914202D80133072BF7D1D9
:1015F000154A1A4102EB5102B2FBF1F101394FF6E3
:10160000FF72914228BF1146C21E012A06D80F4A16
:101610000F4C0020106020600E480FE0421F012A8E
:1016200006D9A0F10902012A02D91438032809D8E1
:10163000094A0A4C002010602060094843F0080362
:101640000160136010BD00BF006CDC02009003401D
:10165000049003400890034000800340048003404E
:1016600008800340212810B518D80D4A52F83030B0
:1016700093F880423CB1012211B183F8802010BD63
:1016800083F8002110BD02EBC00043681A6811B155
:1016900042F0030201E022F002021A6010BD00BF16
:1016A000F4450000212806D8044B53F8303093F855
:1016B0000002C0B270470020704700BFF445000030
:1016C000212816D80B4A02EBC00301295B6852F8A7
:1016D000302004D182F880124FF4A27208E000207A
:1016E00082F8800211B94FF4807201E040F20312D7
:1016F0001A607047F445000070B53A4B1E7801251A
:101700000A1E044605FA06F3D8BF002102DD9A42FC
:1017100005D32946FFF7A6FF204629465EE0C11EF5
:10172000CBB2012B94BF304B304B1B6803FB022321
:10173000F340142949D8DFE801F00B11171D484880
:1017400023294848484848484848482F353B4100E5
:10175000274A13604FF45172264B34E0264A136037
:101760004FF45172254B2EE0254A136040F244425B
:10177000244B28E0244A136040F24442234B22E0E9
:10178000234A136040F24442224B1CE0224A136079
:1017900040F24442214B16E0214A136040F2444299
:1017A000204B10E0204A136040F244421F4B0AE0F5
:1017B0001F4A136040F244421E4B04E01E4A13606D
:1017C0001E4B40F244421A6070BD7F2A2046D4BFAF
:1017D00000210121FFF746FF20460121BDE87040AE
:1017E000FFF76EBF84F1FF1F08900340088003409D
:1017F000109003403090044018900340349004400F
:10180000488003401CC004403080034010C00440A6
:10181000208003400CB004402880034010B00440F6
:101820003880034014C004404080034018C0044086
:101830001080034004B004401880034008B0044006
:101840002DE9F04107460E4690460824012505EA99
:1018500008013846FFF706FF30460121FFF702FF77
:1018600030460021FFF7FEFE6D00013CEDB2EED1E7
:10187000BDE8F0812DE9F04107460E469046082468
:10188000802505EA08013846FFF7ECFE30460121C5
:10189000FFF7E8FE30460021FFF7E4FE013C4FEA87
:1018A0005505EED1BDE8F08112B91A46FFF7C8BF61
:1018B0001A46FFF7DFBF2DE9F04180460F460824A6
:1018C0000025012638460121FFF7CCFE4046FFF7F0
:1018D000E9FE00B1354338460021FFF7C3FE76002C
:1018E000013CF6B2EED12846BDE8F0812DE9F04189
:1018F00080460F4608240025802638460121FFF740
:10190000B1FE4046FFF7CEFE00B135433846002118
:10191000FFF7A8FE013C4FEA5606EED12846BDE887
:10192000F0810AB9FFF7C7BFFFF7E0BF72B60C4BF3
:101930000C491A680C4BD3F88830096862B6490123
:1019400002D5322A88BF0133C2F53B4230217F32B3
:10195000B2FBF1F24FF47A7000FB0320704700BF36
:1019600018E000E004ED00E0E4F7FF1F38B504469E
:10197000FFF7DCFF054664B1FFF7D8FF401BB0F569
:101980007A7F03D3013C04D005F57A7500F0D8FEC8
:10199000F2E738BD10B5FFF75BFC124B124A134C4F
:1019A00000204BF6FF711860596028231360936084
:1019B000136193611362936213639363092222603C
:1019C00004F58054043420600948016009490B6023
:1019D0008B60094B04201A60FFF7C8FFBDE8104078
:1019E00000F0D8BC048003400C800340008003401A
:1019F000089003400C9003400090034070B50546EA
:101A0000C1EBC1042B782BB1013CFBD1002070BD90
:101A1000013CFBD02B78002BFAD0FFF787FF06465E
:101A20002B7813B1013CFBD1F0E7FFF77FFF801B60
:101A300070BD70B50546C1EBC1042B782BB9013CD4
:101A4000FBD1002070BD013CFBD02B78002BFAD1DC
:101A5000FFF76CFF06462B7813B9013CFBD1F0E78A
:101A6000FFF764FF801B70BD21280BD8064B53F88D
:101A7000300000F5007011B11146FFF7BFBF1146ED
:101A8000FFF7D7BF00207047F445000030B5184974
:101A900022230B7003234B70164B85B01B680393F6
:101AA000154B1B680293154B1B680193144B1B6865
:101AB0000093144B00221DF80200013243401248EB
:101AC000102A00FB03F3F6D100221DF80200434068
:101AD0000D4843431A20B3FBF0F501EB420400FB31
:101AE000153001324130102A6080EED105B030BD92
:101AF000F2F1FF1F54800440588004405C80044091
:101B000060800440C59D1C819301000170B50C4BA1
:101B10000C4C1A7842F0020504EBC50682F0010273
:101B2000706058781A7000280CBF8826C82680F08C
:101B3000010046EA0141587044F8351070BD00BFFD
:101B400070F8FF1F00E0FF1F08B5044B5B681BB176
:101B500000F0F8FD0028F8D108BD00BF70F8FF1FA5
:101B60000138032807D8054B03EB8000406800309C
:101B700018BF012070470020704700BF70F8FF1F9A
:101B8000431E032B10B50ED8084A02EB830250689F
:101B900050B141685160064A018832F81340611A19
:101BA00022F8131010BD002010BD00BF70F8FF1FF9
:101BB00004110020431E032B10B510D872B6094A39
:101BC00002EB8302506840B141685160064A0188C7
:101BD00032F81340611A22F8131062B610BD0020CB
:101BE00010BD00BF70F8FF1F04110020013803284A
:101BF0000CD8074B03EB8000436972B600201BB181
:101C00001A885B681044FAE762B670470020704794
:101C100070F8FF1F013803280BD872B6064B03EB90
:101C200080004369002013B101305B68FBE762B6B6
:101C300070470020704700BF70F8FF1F10B572B6E4
:101C40000123184A1A4412F8012C12071ED59900D4
:101C5000154A52F831402CB902EB43130830586052
:101C6000124B09E041F0010152F8314074B902EB26
:101C7000C103083058600E4B42F831300D4B93F8D9
:101C80002420013A83F8242062B610BD0133052BCD
:101C9000D7D162B6074B002283F82420BDE810405C
:101CA00000F0E2BB0447000000E0FF1F8800400096
:101CB000C800400070F8FF1F421E032A30B533D819
:101CC0001A4B400140F01000184472B6184CA3188B
:101CD00093F82530032B09D8DFE803F0130215052C
:101CE0000830022310E0083004230DE09200A3180E
:101CF000586908B9596101E0DB6A59602244D16230
:101D000011E0032300E00523224410F0080F82F8BD
:101D1000253001F108030A8843600CBF8823C823DB
:101D200043EA0243036062B630BD00BF00E0FF1F1C
:101D300070F8FF1F2DE9F84FB54E3478E4B214F077
:101D4000040F354610D0B34B93F8443053B1B24A28
:101D5000117801F0FF0329B1013BDBB213700BB91D
:101D600000F0D0FC0423337004F0080303F0FF02FA
:101D7000002B00F0C782A94BA94D1B78DBB21C09D0
:101D80004FEA930840F0188205EBC803596855F8EC
:101D90003830C3F38303013B0C2B00F20982DFE8E8
:101DA00013F0CC01CC010702070207020702070269
:101DB0000702E2010702070207020D000A68954CBC
:101DC0004B68A264E36492B2964B45F8383040F217
:101DD000A15000230121824223652B61AB61617018
:101DE000274600F064811DD8B2F5817F00F0EE80B7
:101DF00009D8802A00F0D380822A00F0D580212AD9
:101E000040F066815DE140F2A130824200F03B810A
:101E1000B2F5A06F00F0608140F202339A4200F008
:101E2000E68055E1B2F5106F21D010D8B2F5D06F31
:101E3000C0F04E8140F281639A4240F20581B2F5D2
:101E4000086F08BF94F8443000F0378140E142F257
:101E500021218A4200F0128142F221339A4200F09D
:101E60003B8142F221039A4200F0648130E1DFF8C5
:101E7000B08194F84A3084F8443008F18009D8F8E9
:101E800020301B0604D5D8F82400083800F0ECFAFE
:101E900008F10808C845F2D14FF00008C146DFF844
:101EA000A4A158F80A0028B1D0F804B000F0DCFA78
:101EB0005846F8E75C4B4AF80800A3F1400A48F896
:101EC000030058F80A0028B1D0F804B000F0CCFAAA
:101ED0005846F8E7554B564A48F80300073B22F8A6
:101EE000190019F803204AF80800023A032A08D812
:101EF000DFE802F002040204002200E0012203F8FD
:101F0000092009F10109B9F1040F08F10408C6D14B
:101F1000002384F824304FF00108464A464B4244DF
:101F2000434412F8012C9B0012F0080F1A704FEA7C
:101F3000880925D000F07AFA38B105EB481308304B
:101F400058603E4B45F8393006E097F8243045F8A4
:101F50003900013387F8243000F068FA49F00103B2
:101F600038B105EBC302083050602E4A45F83320E3
:101F700006E045F8330097F82430013387F8243021
:101F800049F0020208F1010849F003090023B8F101
:101F9000050F45F8323045F83930BED19DE084F860
:101FA0003C3084F83D309AE0B4F84C20042A00F22A
:101FB0008F8084F83C3084F83D309200204B9B5C4D
:101FC0009D0740F18C8084F83C1088E0B4F84C20E8
:101FD00002F07F03042B7BDCB4F84A30002B77D16E
:101FE0009100174A0A44117821F0020149E0B4F83F
:101FF0004C2002F07F03042B6ADCB4F84A30002B3B
:1020000066D191000E4A0A44117841F0020138E08D
:102010008020074070F8FF1F65F9FF1F90200740E0
:1020200000E0FF1FC8004000C4F8FF1F9CF8FF1F1E
:10203000041100200447000030C80110880040004F
:10204000C020074074F8FF1FB4F84A20B4F84C10C1
:10205000A24B53F8085CA3F10C00CDB333F80C7C11
:10206000974209D133F80A7C8F4205D1120A032A1C
:102070000CBF2B78038935E00C33EAE794F84A105B
:10208000974A117029E0B4F84C20032A20D194F823
:10209000642084F83C3084F83E3084F83F3084F883
:1020A000413084F83D1084F84020062318E0B4F84D
:1020B0004C30032B0CD194F8643084F83C300B4640
:1020C0000EE0B4F84C20032A02D184F8641004E036
:1020D000844B0F221A702DE000231D4602E00223DC
:1020E00007F13C05B4F84E80434538BF9846B8F137
:1020F000400F34BF4746402728463946FFF706FDC4
:10210000B8EB07083D4403D1402F13D1474604E004
:10211000B8F1400F34BF4746402728463946FFF7FD
:10212000F5FCB8EB07083D4401D1402F02D12565ED
:10213000A4F8668001226C4B39E06C4BB3F8482060
:1021400042F221039A420AD10023694AC85C98549A
:102150000133072BF9D100200146FFF7D7FC654B6F
:1021600045F8383024E0614C276DA7B1B4F866809B
:10217000B8F1400F34BF4546402538462946FFF7A1
:10218000C5FCC5EB08039BB2A4F866300BB9402D23
:1021900000D17B192365B4F84820544BB2F5A06FE9
:1021A00006D1002283F8492093F84A20524B1A7036
:1021B0004D4B01221A708DE005EBC807013C7A688F
:1021C00003F00803A2F10800E4B203F0FF01002BC2
:1021D00047D000F049F9454B03EB840C1819DCF8A3
:1021E00014202AB35168CCF8141002F10801796068
:1021F00090F82510032910D8DFE801F00205080B3C
:102200001C44032307E01C44022304E01C44052370
:1022100001E01C44042384F82530128817F0080FCD
:102220000CBF8823C82343EA024345F8383051E005
:1022300090F82520032A0BD8DFE802F04C4C020569
:102240001C44002301E01C44012384F8253041E0B4
:1022500017F0080F1C440CBF0222032284F825202B
:1022600038E055F838301B0C22F8083C43B3DFF84F
:102270007CC022F8061C4FEA840E42F8041C0CEBCA
:102280000E014A680AB9486001E04A6D50600CEBE3
:102290000E02DFF858905065184A32F814100B44BB
:1022A00022F8143000F0C2F810B10830786007E06E
:1022B00099F8243045F83800013389F8243007E0D4
:1022C0000C4B0F4A17F0080F08BF134645F838307B
:1022D000FFF73AFC082333702EE500BF14470000D7
:1022E00066F9FF1FC02007409420074070F8FF1FC9
:1022F0000C110020C8004000982007400411002065
:1023000088004000E00720D51A4C1B481B4E214690
:102310000223037001F8682B194BA8341E60596022
:102320001A619A619E60DC60164B0D211970164986
:10233000FF230B702B700A74144A1370144B9F22E6
:102340001A7001230370BDE8F88F210604D50D4BE8
:102350000D221A7080232B70A20705D50A4B1A781C
:10236000D2B21A7002232B70E30644BF10232B70E5
:10237000BDE8F88F70F8FF1F9420074088004000E8
:1023800000E0FF1FC0200740882007408C20074046
:102390008420074008B5FFF779FB00231C4A002181
:1023A0009950D0180833882B4160F7D1194B196820
:1023B00041F48021196003F52833D8338021197046
:1023C000187815490006FBD4144BC2F30720187087
:1023D000C2F30740120E18751A76114AFF231370C4
:1023E000137202F8703C0B7843F040030B7001232A
:1023F0000021137582F8801013710A4B70221A7035
:10240000A3F21F3308221A60074B10221A7008BD6E
:1024100000E0FF1F348004400C2107409C2007404F
:102420008020074023E400E00821074072B60C4AF0
:102430001168B1FA81F33B2B02D962B600207047D4
:102440004FF00040D84021EA0001116062B6054912
:1024500048225343C8180022CA504260704700BF48
:10246000E8F2FF1FA0E0FF1F0C4B4822C31AB3FB8A
:10247000F2F33B2B11D80A4A127822B1094A12789A
:102480000AB1FFF7DBBB72B6074A4FF0004121FAF1
:1024900003F311681943116062B67047A0E0FF1F93
:1024A00094F8FF1FB4F8FF1FE8F2FF1F10B5104C9F
:1024B00023686BB120684288531C0244147A028856
:1024C000934212D3FFF7D0FF094B00221A600DE0B0
:1024D000084B1B7813B94FF0FF3010BD0320FFF7F6
:1024E00069FB20600028E5D1F5E74380204610BD58
:1024F00058F9FF1FB4F8FF1F10B50B4C236813B138
:1025000023686BB902E0094B1B7813B94FF0FF3019
:1025100010BD0320FFF74EFB20600028F0D1F5E747
:102520005A881344187A10BD58F9FF1FB4F8FF1FDA
:10253000044B9888044B1B681BB11A885B88D31A1C
:10254000184470470411002058F9FF1F2DE9F0418D
:1025500080460E460027002E2ED0194B1B785BB309
:10256000184C236825464BB90320FFF723FB28604E
:1025700010B3038813B9FFF777FFF5E72468618884
:1025800025886D1AAE4238BF3546083140462A4686
:10259000214401F0CFFE6388A8442F44761B1D44DC
:1025A0002388ADB2AB426580D5D82046FFF75CFFEB
:1025B000044B00221A60CEE73846BDE8F08100BF28
:1025C000B4F8FF1F58F9FF1F10B5094B1B786BB10A
:1025D000084C206818B1FFF747FF00232360032051
:1025E000FFF7E8FA10B1FFF73FFFF8E710BD00BFB3
:1025F000B4F8FF1F58F9FF1FF8B5284C0123064611
:102600000D462371002D46D0A3680BBB47F2095736
:10261000234B1B7803F0FF020BB9227112E0042058
:10262000FFF7F8FA072807D801232371FFF7FEFE0A
:10263000A06068B9194B1871013F01D0237B23B109
:10264000012323734FF0FF30F8BD00F079F8DFE786
:10265000A1684888C0F14002954238BF2A4600F17F
:1026600008070023104423730F444880AD1A934297
:1026700003D0F05CF8540133F9E71E444B883F2B3C
:1026800006D940230B800420FFF716FB0023A3602C
:1026900005236373B6E725712846F8BD58F9FF1F77
:1026A000B4F8FF1F07B502AB012103F8010D18466E
:1026B000FFF7A2FF03B05DF804FB70B50F4B1B786A
:1026C000D3B10F4CA568012626714DB100266B8849
:1026D000667304202B802946FFF7EEFAA66009E016
:1026E000FFF7A4FE014620B104206573FFF7E4FA6A
:1026F00000E066730023237170BD00BFB4F8FF1FB4
:1027000058F9FF1F38B50D4C237903F0FF059BB92D
:10271000A16831B14B880B800420FFF7CDFAA5608A
:1027200038BDFFF783FE014620B10420BDE83840E4
:10273000FFF7C2BA0123637338BD00BF58F9FF1F0A
:102740007047FFFF014801F05DBD00BF68F9FF1F42
:102750000B4B4CF220521A804DF628121A8000BF03
:1027600000BFD32223F80E2C00221A814FF4B77237
:1027700023F80A2C4FF4585223F8082C704700BF56
:102780000E200540704770470846114600F0E4BE31
:10279000104600F067BFFFFF2DE9F04F904D87B066
:1027A000FFF7D6FF00F0F3FF05F1940001F040FCC5
:1027B00001F0BAF800F0E3FF01F0AAFB05F1A00078
:1027C000002100F08DFB012385F8A830854B1E7891
:1027D00006F0FF09002E40F0E58072B6824B4AF207
:1027E00002621A804BF280421A8062B67C4C7F4FA4
:1027F000DFF80C8204F1940001F02CFC3B6818F81F
:10280000230001F0EDF895F8A830ABB104F1AC006D
:1028100004F1A00184F8A86000F068FC04F52C70B5
:1028200004F1AC0101F0B8FC84F81C6CC4F8209CE5
:10283000C4F8249CC4F8289C95F81C9C684CB9F1F9
:10284000000F52D104F52C7001F0D3FC10B901F047
:10285000E1F948E0664E33680193019AD4F8283CC8
:102860009A4242D9D4F8201C04F52C7001F0C4FC23
:10287000D4F824AC834601F0ABF8514602465846E2
:1028800001F073FCD4F8243CD4F8201C03F1010AB5
:1028900004F52C70C4F824AC01F0AEFCC368D5F884
:1028A000201C9A4528BFC4F8249C4D4C04F52C707C
:1028B00001F0A2FCD5F8283C026913443268029268
:1028C000029AC5F8283C9A420DD9494BD4F8201CED
:1028D0001B68039304F52C70039E01F08DFC0369C3
:1028E0001E44C4F8286C01F06BF83D4C204601F002
:1028F000DDFCF8B1012384F81C3C01F05BF8C8B999
:1029000004461522B4FBF2F3696802FB134251F846
:10291000231002EB420202F109030B448E182046F9
:1029200099785A78737A013401F060F8AA2CE8D1CA
:1029300001F046F8FFF7FCFD002804DD012385F8CF
:102940001C3C01F067FB264C04F1940001F0B2FB43
:1029500000283FF43BAF04F1940001F0B6FBC6B28F
:102960007EB904F52C70D4F8207C01F042FC0137CC
:10297000B7FBF0F303FB1070C4F8200CC4F8246C10
:1029800024E7012E7FF422AF3A680523013292FB3F
:10299000F3F303EB8303D31A3B6018F8230001F031
:1029A0001FF813E7134B144A1A60114B1A6805926B
:1029B000059A18460A32016804910499914209D295
:1029C00072B6094B4AF2026119804BF280411980BC
:1029D00062B6F0E772B6094B00221A70FEE700BF3C
:1029E00068F9FF1FD4F8FF1F0C200540ECF2FF1F11
:1029F0006CF8FF1FFC1F002046436274082107404B
:102A0000984700002DE9F0410025164F002407EB00
:102A10000508FFF70BFD0022831801320026402A2B
:102A20001E72F9D148F804000434242CF1D1283561
:102A3000782DEAD1FFF7FAFC3346C21801330021A2
:102A4000402B1172F9D1084B1A46C3F8840042F8A2
:102A5000347B5A6003F15C029A60044AC3F8A020F8
:102A6000BDE8F08174F9FF1F68F9FF1F8847000077
:102A700038B5036804461B689847236820465B689E
:102A80000521002298472368FF2101229B682046E8
:102A9000984723680546DB68204698472368204608
:102AA000DB689847236820461B68984723682046C0
:102AB000DB689847284638BD38B5036804461B686C
:102AC0009847236820465B689F2100229847236827
:102AD00000210A469B682046984723680021054646
:102AE0000A469B68204698472368002101229B687C
:102AF0002046984723682046DB689847284638BD1B
:102B0000036870B504461B689847236820465B68D5
:102B10009F21002298472368002120460A465B68CF
:102B20009847236800210A469B68204698472368F7
:102B30000546002101229B682046984723680646E7
:102B4000DB682046984746EA052080B270BDF8B59C
:102B5000036804461B680D469847236820465B6857
:102B60009F2100229847236800210A469B6820463F
:102B70009847236800210A469B68064620469847E6
:102B80002368002107469B680122204698473F02A0
:102B9000BFB22368384387B2DB68204698471349A1
:102BA00015BB2B01CA5CB24207D1104A13445A88A4
:102BB000BA4202D15B78237112E00135072DF0D1C2
:102BC00010E00133072B0DD001EB03125078A8421F
:102BD000F7D11378B34205D15388BB4202D1257196
:102BE0000120F8BD0020F8BD0023EDE7AC47000050
:102BF00038B5036804461B689847236820465B681D
:102C00000521002298472368FF2101229B68204666
:102C1000984723680546DB682046984705F0010081
:102C200038BD38B5036804461B680D4698472368CD
:102C3000002D20465B680CBF042106210122984725
:102C400023682046DB68984738BD10B50023074A43
:102C5000047902EB031251788C4201D1506810BD07
:102C60000133072BF3D1002010BD00BFAC4700009B
:102C700010B50023064A047902EB031251788C4206
:102C800001D1108910BD0133072BF3D1002010BDF5
:102C9000AC47000010B50023064A047902EB03128A
:102CA00051788C4201D1908910BD0133072BF3D1AB
:102CB000002010BDAC47000010B50023064A04797F
:102CC00002EB031251788C4201D1D08910BD01333F
:102CD000072BF3D1002010BDAC47000038B50368C6
:102CE00004461B680D46984723682046AB21012205
:102CF0005B68984723682046DB6898475023013B70
:102D00007FF4FDAF20462946BDE83840FFF71FBFDE
:102D1000036810B504461B68984723682046B9210C
:102D200001225B68984723682046DB689847502358
:102D3000013B7FF4FDAF10BD2DE9F04104460F4685
:102D400090461E46FFF754FF0546002834D12368FD
:102D500020461B689847236820465B6803212A4663
:102D60009847236820465B68C7F307412A4698477F
:102D7000236820465B68C7F307212A4698472368E3
:102D800020465B68F9B22A469847ABB2B342236843
:102D90000CD2721EAF1A7A429B6820464FF0000197
:102DA0007A41984708F805000135EEE72046DB68D0
:102DB00098473046BDE8F0810020BDE8F081036807
:102DC00070B504461B680D46164698472368204692
:102DD0005B680221002298472368C5F307415B68BE
:102DE0002046002298472368C5F307215B682046E8
:102DF00000229847236800215B6820460A469847CE
:102E00000025EAB2B2F1FF0E2368715D5B68DEF166
:102E1000000252EB0E02204601359847B5F5807F3F
:102E2000EFD123682046DB68984770BD38B503684A
:102E300004461B680D469847236820465B6820219E
:102E40000022984723682046C5F307415B680022AB
:102E5000984723682046C5F307215B6800229847FE
:102E6000236820465B68E9B2012298472368204620
:102E7000DB68984738BD38B5036804461B680D46C3
:102E80009847236820465B68D8210022984723682A
:102E90002046C5F307415B68002298472368204617
:102EA000C5F307215B6800229847236820465B68CA
:102EB000E9B20122984723682046DB68984738BD6D
:102EC000036810B504461B689847236820465B6872
:102ED000C7210122984723682046DB68984710BD28
:102EE00038B504460D4600F0A9FA23682046DB6891
:102EF000984720462946BDE83840FFF7EFBEFFF768
:102F000007BF00BF72B6044B4AF202621A804BF24E
:102F100080421A8062B670470C200540FF314FF4A2
:102F2000805391FBF3F0013070474FF4007070470D
:102F300001440879D0F1010038BF00207047002318
:102F40001A46C118097901B901320133B3F5007F7E
:102F5000F7D11046704708B5FFF7F1FF000308BD31
:102F600008B5FFF7ECFF28B17C28A8BF7C20000340
:102F7000A0F5807008BDB1F5007F01D30020704737
:102F800001440879431E58425841704770B50024E7
:102F90000646254630462146FFF7EDFF00B10135D4
:102FA0000134B4F5007FF5D1284670BD37B504462D
:102FB0000D46FFF7E0FFA0B1290304232068043188
:102FC00001AAFFF7B9FE9DF805009DF80430000442
:102FD00040EA03609DF8073018439DF8063040EA48
:102FE000032003B030BD37B504460D46FFF7C3FFDD
:102FF00048B129032068083101AA0123FFF79CFE8C
:103000009DF8040000E0FF2003B030BD08B5FFF7D5
:10301000CDFF4FF48053FF3090FBF3F0013008BD3B
:1030200073B5144606460D46FFF7C0FF4FF48053B4
:10303000FF3090FBF3F301339C4211DC9CB12D0374
:1030400005F108010223306801EB440101AAFFF7F2
:1030500073FE9DF804009DF8053043EA002003E06C
:103060004FF0FF3000E0284602B070BDF7B50023F6
:103070000546EA1801330024B3F5007F1471F8D136
:103080002F193B79ABB904232868210301AAFFF764
:1030900053FE9DF80430122B0BD19DF80530342BD4
:1030A00007D19DF80630562B03D19DF80730792BB8
:1030B00005D00134B4F5007FE2D103B0F0BD0126A4
:1030C0003E7128462146FFF771FF4FF48053FF30D1
:1030D00090FBF3F0B042ECDB324628462146FFF786
:1030E0009FFF2844022303710136EAE70160FFF7DE
:1030F000BDBF2DE9F04104460E46FFF73CFF0746F1
:10310000002842D0012531462046FFF74FFF4FF4FB
:103110008053FF3090FBF3F0A8424FF0010120688C
:103120001CDBFFF77EFD314620462A46D4F800809E
:10313000FFF776FF01034046FFF778FE2068FFF7B0
:1031400057FD014628B1FFF7DDFE0220FEF70EFC19
:10315000F4E72068FFF765FD0135D4E7FFF761FD6F
:1031600020683103FFF762FE2068FFF741FD01464A
:1031700028B1FFF7C7FE0220FEF7F8FBF4E720684E
:10318000FFF74FFD2046FFF771FF3846BDE8F0819D
:10319000F8B504460E4615461F46FFF7ECFE08B983
:1031A0000020F8BD15F0FF0FFAD120463146FFF799
:1031B000FDFE05F1FF038342F2DA2D1201352A11DB
:1031C00031462046FFF72CFF05F00F05064601218A
:1031D0002068FFF726FD2902206801EB06313A46F8
:1031E000FFF7EDFD2068FFF703FD014628B1FFF76B
:1031F00089FE0220FEF7BAFBF4E72068FFF711FD15
:103200004FF48070F8BD2DE9F84F0A9D04460F4633
:1032100090461E46FFF7AFFE10B90020BDE8F88FBC
:1032200020463946FFF7C2FE08EB05098145F4DC6C
:10323000B5F5805FF1DC08F580784FEA283B08EBB4
:103240000509204639465A46FFF7EAFE09F1FF3ADA
:103250004FEA2A3AC8F30B08D34508EB003807D1E8
:10326000206841463246ABB2FFF766FDBDE8F88FF5
:10327000394652462046FFF7D3FEC9F30B09C9EB86
:103280000505824641463246ABB22068FFF754FD41
:103290004FEA0A310746721920684B46FFF74CFD8A
:1032A0003844BDE8F88FB1F5007F04DA43181B7984
:1032B00023B10131F7E74FF0FF3070470846704700
:1032C0002DE9F04112F0FF07C0B004460E46154646
:1032D00040F08D80FFF744FE854200F388803B4636
:1032E000FF220DF803200133B3F5807FF8D11223BC
:1032F0008DF8003034238DF8013056238DF80230DC
:1033000079238DF803302B0E8DF804302B148DF8B3
:10331000053020462B1200218DF806308DF807501D
:103320008DF808608DF80920FFF7BDFFFF354FF4D9
:103330008053804695FBF3F506460127BD4222DB0C
:10334000711C2046FFF7AFFF00A901EB47030212F3
:1033500006465872012120681A72FFF762FC206845
:103360003103FFF763FD2068FFF742FC014628B1F7
:10337000FFF7C8FD0220FEF7F9FAF4E72068FFF72F
:1033800050FC0137DAE7206801214FEA0835FFF7E2
:1033900048FC20682946FFF749FD2068FFF728FC14
:1033A000014628B1FFF7AEFD0220FEF7DFFAF4E791
:1033B0002068FFF736FC20680121FFF732FC206807
:1033C00029466A46FFF7FBFC2068FFF711FC01461F
:1033D00028B1FFF797FD0220FEF7C8FAF4E720684E
:1033E000FFF71FFC2046FFF741FE404601E04FF08B
:1033F000FF3040B0BDE8F0810C4A0D4B116811F46C
:10340000804F30B50B4D0C4C04D01A682A605B68B5
:10341000236030BD41F4804040F001001060186826
:1034200028605B682360116030BD00BF00C00240AF
:103430009C0B00200CC0024010C00240104B1149F0
:103440001A6842F480521A6003F53F531C334FF45C
:1034500010721A604FF400730B6041F8082C0A4A8E
:1034600013600A4B0A4A1A6002F180425A60094B03
:10347000094A1A601A6842F440621A60FFF7BCBF3A
:103480003C8004401CB0044008B004409C0B002069
:103490000011F0B800C0024000001F8038B504469B
:1034A0000D46FFF7CBFF0B4B002C1A6814BF4FF0F3
:1034B00080600020002D14BF4FF0007100210243F6
:1034C0000A431A605A6802430A435A60BDE838400A
:1034D000FFF792BF9C0B002010B50446FFF7AEFF2C
:1034E000601EC0B2062898BF084B094998BF53F820
:1034F0002020084B88BF4FF0004213430B60064B5F
:10350000BDE8104013434B60FFF776BF1C48000036
:103510009C0B00200011F0380011F07838B50C46F3
:103520001546FFF7D9FF0B4B002C1A6814BF4FF05C
:1035300080600020002D14BF4FF000710021024375
:103540000A431A605A6802430A435A60BDE8384089
:10355000FFF752BF9C0B00200D4B10B500290D4901
:10356000196003F12C034FF0004119600A490B4C1C
:10357000097801F01F010CBF4FF00042002240EA21
:103580000140024322601A68002AFCDA10BD00BF25
:1035900000C00240000C1F80F0F2FF1F34C0024048
:1035A000F8B5CB070C4606D5451C00210078FFF77F
:1035B000D3FF013C2846254B254A264D1A602E781C
:1035C00006F01F06052C4FEA064694BF6308032346
:1035D000044446F0104602460021994202F10202DC
:1035E0000CDA12F8017C12F802CC47EA0C2C1A4FC4
:1035F0004CEA060CC7F800C00131EEE72A7802F069
:103600001F02120423EAE37142F0104200EB410072
:10361000A04217D20578417841EA05250F4909688B
:1036200011F0F00FFAD00C4915430D60043102304F
:103630000968EDE7094A126812F0F00FFAD0084A5B
:103640001268013B002BF5D1F8BD00BF00C002405D
:10365000000C1F80F0F2FF1F34C002402CC002405B
:1036600038C002400E4B0F4919602C334FF0004117
:1036700019600D49097800280CBF4FF00042002264
:1036800001F01F0142EA0141084A41F0FF011160C7
:103690001A68002AFCDA064B1868C0B2704700BFEF
:1036A00000C00240000C1F80F0F2FF1F34C0024037
:1036B00038C00240CB0770B505460C4606D5461CFF
:1036C0000020FFF7CFFF013C28703546224B234AEC
:1036D00023481A600278234902F01F02052C4FEAA2
:1036E000024242EA010194BF630803230022064616
:1036F0009A4203DA1C4801320160F9E7A4EB430463
:103700002C442846A04214D2184A126812F0F00F36
:10371000FAD03178134A01F01F0109040A43124913
:103720000A60134A12684270C2F307210170023026
:10373000E8E704EB430398420CD20C4A126812F0FB
:10374000F00FFAD00A4A12684270C2F307210170E2
:103750000230F0E770BD00BF00C00240000C1F80C7
:10376000F0F2FF1FFFFF009034C002402CC0024067
:1037700038C00240C0F1FF011520FDF7BDBF062093
:103780000021FDF76FBF06200121FDF76BBF08B5D3
:1037900005200021FDF794FF14200021FDF790FF84
:1037A00015200121FDF78CFF06200121FDF788FF80
:1037B00009200121FDF784FF0A200121FDF780FF88
:1037C000FF20FFF7D7FFBDE80840FFF7DCBFFFFF92
:1037D000144B30B51C68144D44F002041C605C6846
:1037E00044F002045C60114B114C18600120988079
:1037F0000023236065602381E36024F8063C44F8DD
:10380000041C0C4992B20A800A810B4A137085236A
:1038100013700A4B09221A8002221A80084B186082
:1038200030BD00BF3C80044007B00640009000401F
:103830000C90004016900040001002401C90004088
:1038400000E100E0094B012289B218609A60D98238
:10385000D983A3F6E57300221A7003F5852303F2DA
:10386000F5734FF451721A60704700BF009000402A
:10387000104B11491A6842F400621A6003F53F5375
:103880001C334FF451721A600C4A00230C20137041
:103890000B70487010208B72887040204B718871BB
:1038A000074880210170417106490B70082313708D
:1038B000704700BF3480044000B0064003B00640AB
:1038C0000BB0064013B0064008B5124B4FF4A2727D
:1038D0001A60114A102313604FF47A4101397FF4C2
:1038E000FDAF0E490B604FF4C86101397FF4FDAFA5
:1038F00013608023013B7FF4FDAF094B40F2FF11C1
:103900001868FFF79FFF074B1A7842F080021A7081
:1039100008BD00BF10B0044084F00F4088F00F4095
:10392000A40B002003B00640F8B5124C2546FFF763
:103930009FFF002655F8040B40F2FF1740F2FF11DD
:103940000122FFF745FF04F2032031463A46256085
:10395000C4F8040484F8086400F086FD2846314663
:103960003A4600F081FDFF2384F80934BDE8F840B1
:10397000FFF7AABFA40B00200C4B00221A7003F51E
:10398000C52303F2E473197801F07F011970084B25
:1039900093F8081439B11868D3F804141960C3F8FF
:1039A000040483F80824FFF78FBF00BF1F80004086
:1039B000A40B0020014B93F808047047A40B0020CF
:1039C000024B012283F80824704700BFA40B00209B
:1039D000024BD3F804040130704700BFA40B002051
:1039E000014B83F809047047A40B002030B5084C44
:1039F000D4F8045400EB400005446970D4F8041472
:103A000001448A70D4F804241044C37030BD00BF50
:103A1000A40B002010B500231A4640FA03F1C90791
:103A200006D5C3F10701012404FA01F10A43D2B219
:103A30000133082BF1D1104610BD10B572B6114AF2
:103A4000082313604023013B7FF4FDAF00231146A0
:103A500040FA03F212F0010F18BF0B4C4FF00802AE
:103A600014BF22600A604022013A7FF4FDAF0133A7
:103A7000082BEDD1044A13608023013B7FF4FDAF96
:103A800062B610BD88F00F4084F00F40F0B572B6FA
:103A9000184B19491A680C6842F080721A60174B6B
:103AA0001A6842F001021A60154A00211368217059
:103AB0001168C91ABF29FBD90126C02106420CBFD3
:103AC00000250125257001F1C0051768FF1AAF42D6
:103AD000FBD37600B5F5D86FF6B201D02946EDE7F5
:103AE0000120207001F510711068C01A8842FBD3C4
:103AF00062B6F0BDFCED00E0B00F0020001000E069
:103B0000041000E00C4A082370B5136005460E4609
:103B10000A4A013A7FF4FDAF094A13604FF4B063DB
:103B2000013B7FF4FDAF0024B44204DA285DFFF7C7
:103B3000ADFF0134F8E770BD88F00F408038010018
:103B400084F00F40F7B52D4A2D4B926C1A6000EBB4
:103B50004000012284182B481A712040002398420B
:103B60008DF8043003DA013860F0FF001044C0B271
:103B7000FFF750FF8DF805004FF4807094FBF0F0D4
:103B80004042C0EB00101038C0B2FFF743FF8DF881
:103B90000600D220FFF73EFF1B4D1C4B8DF807009F
:103BA000082710262F6032201E60FDF7DFFE72B658
:103BB000174C4AF2026323804BF28043238062B6A3
:103BC000042101A8FFF79EFF2F602E6003256420CB
:103BD000FDF7CCFE72B64AF2026323804BF28043BB
:103BE000238062B6013DF2D1FFF7CDFD6420FDF7E1
:103BF000BDFEFFF7C4FD03B0F0BD00BFF4450000FB
:103C0000B00F0020FF00008084F00F4088F00F40CC
:103C10000C20054038B50024A2B20C230D4DB2FB98
:103C2000F3F103FB112329689BB299420CBFFF21DA
:103C3000002120460A460B460134FFF7D7FEAA2C86
:103C4000EAD12A680C23013292FBF3F103FB112322
:103C50002B6038BDB80F0020014B01201870704751
:103C600010FAFF1F10B504460078637803EB0020BC
:103C7000FFF768FF00232370012010BD70B50446D4
:103C80000078657926796178A278E3782D0405EBD0
:103C90000665A67905EB0625E6793544B5F5807FFE
:103CA00001DD002070BD090401EB006101EB022180
:103CB00019440548621CABB2FFF73EF8A842F0D1A8
:103CC00001382070012070BD08FAFF1F70B54678DA
:103CD0000378360406EB0366837806EB0326C37885
:103CE0001E44044631460A48FFF745F9054608B91F
:103CF00020700AE006483146FFF775F90323237068
:103D000000236370A370E3702071284670BD00BF6C
:103D100014FAFF1F41780378090401EB03618378EB
:103D200001EB0321C3780022027019440148FFF718
:103D3000E0B900BF14FAFF1F10B500210446074880
:103D4000FFF7B1FA03232370030E63700314A3700B
:103D500003122071E370012010BD00BF14FAFF1F91
:103D600010B504460648FFF7F6F803232370030E48
:103D700063700314A37003122071E370012010BD5F
:103D800014FAFF1F10B504460648FFF7FFF8032397
:103D90002370030E63700314A37003122071E37089
:103DA000012010BD14FAFF1F10B504460648FFF7A6
:103DB000D7F803232370030E63700314A370031258
:103DC0002071E370012010BD14FAFF1F10B5827836
:103DD0004378120402EB0362C378044602EB032229
:103DE0000379217809481A44FFF76AFA00280ADBA8
:103DF00003232370030E63700314A3700312207156
:103E0000E370012010BD002010BD00BF14FAFF1F99
:103E100038B5457803784279C1782D0405EB036500
:103E2000837805EB03250379120402EB036283799F
:103E300002EB0322C37904461A44294404F108031F
:103E40000548FFF7A5F9B0F5807F4FF0000004BFEB
:103E50002070012038BD00BF14FAFF1FF7B5477866
:103E600003784279057AC1783F0407EB03678378CA
:103E700007EB03270379120402EB0362837902EB59
:103E80000322C37904466E1C1A4400963944631C0D
:103E90000448FFF7B8F9B0420ABF0120002025709E
:103EA00003B0F0BD14FAFF1F38B50378452B044664
:103EB00026D14378652B23D112480121FEF7B1FEAC
:103EC0001048FEF7FDFF0F48FEF792FE054660B171
:103ED00072B60D4B4AF202621A804BF280421A808F
:103EE00062B66420FDF742FDEDE729460548FEF77E
:103EF00098FE06480349FFF7F9F82570012038BD00
:103F0000002038BD08FAFF1F0C20054014FAFF1FDF
:103F1000044B01221A6000225A609A60DA601A612A
:103F2000704700BFBC0F002010B5FEF7BFFAC0B24B
:103F3000FF28154C4FF0000314D06168E3604A1C61
:103F40002144022A626008751DDDA0686360A9280B
:103F500019DC237DA17D627DFFF748FDA368013355
:103F6000A36010BD6360A360E3680133012BE360CD
:103F700001D1FFF725FDE268034B082A03DD022289
:103F80001A6000221A6110BDBC0F002038B5FEF780
:103F90008DFA1E4B1A69C0B20AB9FF2834D0511CE1
:103FA0001A441961D075DC7D194B13F80C0CFF28ED
:103FB000A3F10C0203D1BDE83840FFF7A9BFA0422E
:103FC00003F10C03F1D1536899421DDB0F4C936848
:103FD00004F118009847054660B15020FEF762FBD7
:103FE000207EFEF75FFB217E04F119000131FEF710
:103FF00003FBE0E74620FEF755FB2846FEF752FBA1
:104000002846FEF74FFBD6E738BD00BFBC0F0020A7
:1040100000F3FF1F054B1B68012B03D0022B03D1BC
:10402000FFF7B4BFFFF780BFFFF772BFBC0F0020E0
:1040300038B5074D044602212878FDF741FBA878E2
:104040000221FDF73DFB02232360636038BD00BF02
:104050009CF3FF1F4368022B70B50446144D11D02A
:1040600015F81300FDF71EFB636805EB43035B784F
:10407000834205D1A368B3F5FA7F18DA013315E05E
:104080000223636028780A4EFDF70CFB6B788342AD
:1040900008D0B078FDF706FBF378834208BF012310
:1040A00005D100E00023636023600023A36070BD9E
:1040B0009CF3FF1F0368022B05D08068B0F5FA73EC
:1040C000584258417047002070470346022200685A
:1040D0001A60704710B586B01023044680E80600C9
:1040E0000093084602AB11460022FFF78CF89DF8BA
:1040F00009309DF808201B0403EB02639DF80A2099
:1041000003EB02239DF80B201344A3609DF80D30B0
:104110009DF80C201B0403EB02639DF80E2003EBBB
:1041200002239DF80F201344E3609DF811309DF8A1
:1041300010201B0403EB02639DF8122003EB022303
:104140009DF81320134423619DF815309DF8142029
:104150001B0403EB02639DF8162003EB02239DF87A
:1041600017201344636106B010BD13B50446806880
:10417000134600EB4002AA28A8BFAA204A4300EB3E
:1041800040000090103294E80300FFF73CF802B0C2
:1041900010BD90F86809704738B50025044680F8CE
:1041A00068590160C0F864592068FEF7BEFE854278
:1041B0001BDA20682946FEF7DEFEA0B120682946FA
:1041C000FEF711FF12280ED1D4F8643921681822A5
:1041D00002FB034004302A46FFF77CFFD4F8643921
:1041E0000133C4F864390135DEE7012384F8683906
:1041F00038BDD0F864097047182303FB0100043070
:104200007047FFFFF8B51F4E336804465BB1306856
:104210001C4F057A15F0C00312D0802B28D1437AA9
:1042200084F88C3024E0184B1B7813B94FF0FF3022
:10423000F8BD0120FDF7A4FC30600028E7D1F5E7C8
:1042400094F88E20E2B905F01F02082AA36805D869
:1042500012B253F8221043F822000846FEF704F980
:1042600000233360AB0607D5012384F88E3003E0CA
:10427000FEF7FAF800233B60012084F88D00F8BDBA
:104280001846F8BD00110020B4F8FF1F064A8368E5
:104290001268016882B00192019A5A624268816094
:1042A00080E80C0002B070476CF8FF1F38B590F83A
:1042B0008C305A07044605D513F0080F4FF0400321
:1042C00006D003E090F88D2040230AB1094A00E0AF
:1042D000094A94F88E001360002584F88D5038B197
:1042E0002046FFF7D3FF012084F88E5084F8900019
:1042F00038BD00BFC4F00F40C8F00F4090F89000E8
:104300007047D0F8840000231F22B3FBF2F2C2EB07
:1043100042129A1A00EB42025189054A490822F8D2
:104320001310013340F203329342EDD1704700BFC6
:1043300094050020844641EA000313F003036DD185
:10434000403A41D351F8043B40F8043B51F8043B58
:1043500040F8043B51F8043B40F8043B51F8043B5F
:1043600040F8043B51F8043B40F8043B51F8043B4F
:1043700040F8043B51F8043B40F8043B51F8043B3F
:1043800040F8043B51F8043B40F8043B51F8043B2F
:1043900040F8043B51F8043B40F8043B51F8043B1F
:1043A00040F8043B51F8043B40F8043B51F8043B0F
:1043B00040F8043B51F8043B40F8043B51F8043BFF
:1043C00040F8043B403ABDD2303211D351F8043B9F
:1043D00040F8043B51F8043B40F8043B51F8043BDF
:1043E00040F8043B51F8043B40F8043B103AEDD24E
:1043F0000C3205D351F8043B40F8043B043AF9D29F
:10440000043208D0D2071CBF11F8013B00F8013B71
:1044100001D30B8803806046704700BF082A13D37E
:104420008B078DD010F003038AD0C3F10403D21A96
:10443000DB071CBF11F8013B00F8013B80D331F8CA
:10444000023B20F8023B7BE7043AD9D3013A11F84A
:10445000013B00F8013BF9D20B7803704B784370B5
:104460008B78837060467047F0B4840743D0541E45
:10447000002A3ED0CDB2034603E0621E002C38D0A5
:10448000144603F8015B9A07F7D1032C2AD9CDB261
:1044900045EA05250F2C45EA054515D9A4F1100775
:1044A0003F0903F1100606EB07161A461560556022
:1044B0009560D5601032B242F8D104F00F04013794
:1044C000032C03EB07130DD91E462246043A032A98
:1044D00046F8045BFAD8221F22F003020432134488
:1044E00004F003042CB1C9B21C4403F8011BA3421D
:1044F000FBD1F0BC704714460346C6E7024B13B12C
:10450000024800F005B87047000000001D4500009B
:10451000014600200246034600F018B838B5094DA0
:10452000094C641BA41018BF05EB840505D0013CA1
:1045300055F8043D9847002CF9D1BDE8384000F00B
:104540008BB900BF0000000000000000F0B5274C50
:104550002668D6F8484185B00746002C41D06568EA
:104560001F2D1EDD224818B94FF0FF3005B0F0BDF9
:104570004FF4C870039102920193AFF30080039946
:10458000029A019B04460028EED0D6F848512560D7
:10459000002060600546C6F84841C4F88801C4F8A8
:1045A0008C013FB9AB1C00200135656044F8231035
:1045B00005B0F0BD04EB85004FF0010CC0F8882079
:1045C000D4F888610CFA05F21643022FC4F888610A
:1045D000C0F80831E6D1D4F88C311A43C4F88C21E4
:1045E000E0E706F5A674C6F84841B8E73C48000085
:1045F000000000004008FE4340A004404408FE4381
:1046000044A004400018FE4300C004403000FE43B4
:10461000309004403400FE43349004401C18FE43A4
:104620001CC004401018FE4310C004400818FE438C
:1046300008C004400C18FE430CC004400C10FE439C
:104640000CB004401010FE4310B004401810FE439C
:1046500018B004401C10FE431CB004401410FE436C
:1046600014B004400418FE4304C004400010FE438C
:1046700000B004400008FE4300A004400408FE43CC
:1046800004A004400C08FE430CA004400808FE43AC
:1046900008A004401418FE4314C004401818FE4338
:1046A00018C004400410FE4304B004400810FE4348
:1046B00008B004401400FE43149004404C08FE432C
:1046C0004CA004400420FE4304D004402410FE43C8
:1046D00024B004402010FE4320B004402810FE43C4
:1046E00028B004402C10FE432CB004400020FE43B0
:1046F00000D004404808FE4348A004401000FE4398
:10470000109004401915191500010000D3F2FF1F85
:10471000120000000002000066F2FF1F6D000000A2
:104720000003000062F2FF1F000000000103090403
:104730004AF2FF1F000000000203090434F2FF1FC9
:104740000000000003030904F2F1FF1F0000000055
:1047500004030904CEF1FF1F000000000503090453
:10476000A4F1FF1F000000000603090486F1FF1FEB
:104770000000000000000000000000000000000039
:1047800000000000000000008527000089270000CD
:10479000912700008727000005000000140000009A
:1047A0003C00000078000000FF000000EF01144012
:1047B000000010000010000000011000EF02154082
:1047C000000020000020000000022000EF0316403F
:1047D000000040000040000000044000EF041740CB
:1047E000000080000080000000088000EF051840F5
:1047F000000000010000010000100001010614404B
:10480000000010000010000000011000010715401A
:104810000000200000200000000220000000000036
:10482000010000000200000003000000040001007D
:10483000050001000600010043000000A0F3FF1F77
:10484000F8B500BFF8BC08BC9E467047FD440000A8
:084850001D110000052A000003
:04485800F8B500BFF0
:10485C001411002008001E034C006900670068005A
:10486C00740042007500640064007900200044006C
:10487C00460055002A034C0069006700680074006C
:10488C00420075006400640079002000460061005D
:10489C0064006500630061006E006400790024030D
:1048AC004C006900670068007400420075006400E9
:1048BC0064007900200053006500720069006100FB
:1048CC006C00180300000000000000000000000055
:1048DC0000000000000000000000000000000000CC
:1048EC0000000000000000000000000000000000BC
:1048FC0000000000000000000000000000000000AC
:10490C000000000016034C0069006700680074008A
:10491C0042007500640064007900180342006C00CA
:10492C0069006E006B0069006E006C006100620033
:10493C0073000403090409026D0004010080FA08E5
:10494C000B0002020201040904000001020201042E
:10495C00052400100105240101010424020605248C
:10496C000600010705820310004009040100020A39
:10497C000000040705030240000007058402400004
:10498C00000904020001FF000005070501024000B8
:10499C00000904030000FE01010609210D10270087
:1049AC0004010112010002EF020140501DAA602017
:1049BC000001020301000000FFFFFFFF04000000E4
:1049CC00040000000100000003000000653C000032
:1049DC000200000001000000593C00001000000023
:1049EC0001000000613D000011000000010000000A
:1049FC00A93D00001200000001000000853D0000F0
:104A0C001300000001000000393D000014000000FC
:104A1C0005000000CD3C0000150000000500000062
:104A2C00153D00001800000006000000CD3D000000
:104A3C001900000009010000113E00001A000000DE
:104A4C000A0000005D3E0000200000000300000092
:104A5C00A93E000021000000090000007D3C000080
:104A6C00FF00000000000000000000000500140022
:104A7C00000000008CF6FF1FF4F6FF1F5CF7FF1F11
:104A8C00000000000000000000000000000000001A
:104A9C00000000000000000000000000000000000A
:104AAC00000000003848000000000000000000007A
:104ABC0000000000000000000000000000000000EA
:104ACC0000000000000000000000000000000000DA
:104ADC0000000000000000000000000000000000CA
:104AEC0000000000000000000000000000000000BA
:104AFC0000000000000000000000000000000000AA
:104B0C000000000000000000000000000000000099
:104B1C000000000000000000010000000000000088
:104B2C000E33CDAB34126DE6ECDE05000B0000004D
:104B3C000000000000000000000000000000000069
:104B4C000000000000000000000000000000000059
:104B5C000000000000000000000000000000000049
:104B6C000000000000000000000000000000000039
:0400000300001000E9
:00000001FF
